:100000000C9474050C949C050C949C050C949C0514
:100010000C949C050C949C050C949C050C949C05DC
:100020000C949C050C949C050C949C050C949C05CC
:100030000C949C050C949C050C949C050C949C05BC
:100040000C947D160C949C050C94ED160C94C7161C
:100050000C949C050C949C050C949C050C949C059C
:100060000C941F170C949C0500000000003E5B4F91
:100070005B3E3E6B4F6B3E1C3E7C3E1C183C7E3C08
:10008000181C577D571C1C5E7F5E1C00183C180016
:10009000FFE7C3E7FF0018241800FFE7DBE7FF30A6
:1000A000483A060E2629792926407F050507407F14
:1000B00005253F5A3CE73C5A7F3E1C1C08081C1C87
:1000C0003E7F14227F22145F5F005F5F06097F017D
:1000D0007F006689956A606060606094A2FFA29468
:1000E00008047E040810207E201008082A1C080836
:1000F0001C2A08081E101010100C1E0C1E0C303884
:100100003E3830060E3E0E06000000000000005F84
:1001100000000007000700147F147F14242A7F2AA0
:100120001223130864623649562050000807030062
:10013000001C2241000041221C002A1C7F1C2A08AE
:10014000083E080800807030000808080808000011
:1001500060600020100804023E5149453E00427F85
:10016000400072494949462141494D331814127FD4
:100170001027454545393C4A494931412111090774
:100180003649494936464949291E000014000000F5
:1001900040340000000814224114141414140041C7
:1001A00022140802015909063E415D594E7C121184
:1001B000127C7F494949363E414141227F414141BC
:1001C0003E7F494949417F090909013E4141517337
:1001D0007F0808087F00417F41002040413F017FA8
:1001E000081422417F404040407F021C027F7F0470
:1001F00008107F3E4141413E7F090909063E4151B9
:10020000215E7F09192946264949493203017F01A8
:10021000033F4040403F1F2040201F3F4038403FA9
:10022000631408146303047804036159494D4300BF
:100230007F4141410204081020004141417F0402F6
:10024000010204404040404000030708002054548D
:1002500078407F284444383844444428384444286B
:100260007F385454541800087E090218A4A49C78BE
:100270007F0804047800447D40002040403D007F1A
:100280001028440000417F40007C047804787C08FA
:100290000404783844444438FC18242418182424CE
:1002A00018FC7C08040408485454542404043F44B3
:1002B000243C4040207C1C2040201C3C4030403CE2
:1002C00044281028444C9090907C4464544C440042
:1002D00008364100000077000000413608000201A6
:1002E0000204023C2623263C1EA1A161123A404092
:1002F000207A38545455592155557941225454780F
:1003000042215554784020545579400C1E527212A7
:100310003955555559395454545939555454580030
:1003200000457C410002457D420001457C407D1234
:1003300011127DF0282528F07C5455450020545496
:100340007C547C0A097F4932494949323A44444441
:100350003A324A4848303A4141217A3A424020787C
:10036000009DA0A07D3D4242423D3D4040403D3C7D
:1003700024FF2424487E4943662B2FFC2F2BFF09A2
:1003800029F620C0887E0903205454794100004496
:100390007D413048484A32384040227A007A0A0A81
:1003A000727D0D19317D2629292F282629292926F4
:1003B00030484D4020380808080808080808382F39
:1003C00010C8ACBA2F102834FA00007B00000814C3
:1003D0002A142222142A14085500550055AA55AA99
:1003E00055AAFF55FF55FF000000FF00101010FF39
:1003F00000141414FF001010FF00FF1010F010F094
:10040000141414FC001414F700FF0000FF00FF1484
:1004100014F404FC141417101F10101F101F1414D0
:10042000141F00101010F0000000001F101010101A
:100430001F10101010F010000000FF10101010100E
:1004400010101010FF10000000FF140000FF00FF4C
:1004500000001F10170000FC04F4141417101714E8
:1004600014F404F40000FF00F7141414141414140A
:10047000F700F7141414171410101F101F1414147D
:10048000F4141010F010F000001F101F0000001FE7
:1004900014000000FC140000F010F01010FF10FF1A
:1004A000141414FF141010101F00000000F010FFAF
:1004B000FFFFFFFFF0F0F0F0F0FFFFFF0000000093
:1004C00000FFFF0F0F0F0F0F3844443844FC4A4A17
:1004D0004A347E02020606027E027E0263554941CC
:1004E000633844443C04407E201E2006027E020203
:1004F00099A5E7A5991C2A492A1C4C7201724C3017
:100500004A4D4D303048784830BC625A463D3E49ED
:100510004949007E0101017E2A2A2A2A2A44445F91
:10052000444440514A444040444A51400000FF0185
:1005300003E080FF000008086B6B08361236243693
:10054000060F090F060000181800000010100030F8
:1005500040FF0101001F01011E00191D1712003C80
:100560003C3C3C0000000000000103070F1F3F7FE0
:100570000080C0E0F0F8FCFEDB40A4A62EAF200017
:10058000A1C8D300408DAED580A800006000000057
:100590000000000000000000000000E0000000007B
:1005A00000000000000000000001E000000000006A
:1005B000000000000000000001F00000000000004A
:1005C0000000000000000003F00000000000000038
:1005D00000000000000007F0000000000000000024
:1005E000000000000007F80000000000000000000C
:1005F000000000000FF800000003C0007E000001B2
:10060000E0007F0FF800000003C000FE000001E0E2
:1006100000FFEFF800000003C000FE000001E00052
:10062000FFFFF800000003C000F00000000F007F93
:10063000FE7FC0000003C000F00000000F003FFE7E
:100640007FF83FF1FBCFFCFEF3BC3DEFE01FFE7FE8
:10065000FF7FFBFFDFFEFEFFBC3DEFE01FC6FFFF9D
:100660007FFBFFDFFEFEFFBC3DEFE00FE3C7FE7840
:100670007BC3DE1EF0FFBC3DEF0007FF87FC787BED
:10068000C3DE1EF0F83C3DEF0001FFFFF0007BC32E
:10069000C01EF0F03C3DEF0001F37FE03FFBC3CF15
:1006A000FEF0F03C3DEF0003E33F807FFBC3DFFE45
:1006B000F0F03C3DEF0007E73C00787BC3DE1EF026
:1006C000F03C3DEF0007FFBE00787BC3DE1EF0F07C
:1006D0003C3DEF0007FFFE00787BC3DE1EF0F03CE0
:1006E0003DEF000FFFFE007FFBFFDFFEF0F03FFD60
:1006F000EFE00FFFFF007FFBFFDFFEF0F03FFDEFBD
:10070000E00FF9FF003E79F9CF9EF0F01F3DE7E0E2
:100710001FF1FF0000000000000000000000001FAB
:1007200080FF007FFFFFFFFFFFFFFFFFFFE01C00D8
:100730007F007FFFFFFFFEB46D888D18E000001F73
:10074000007FFFFFFFFE95AD7DB577E000000F0055
:100750007FFFFFFFFEA5AD9D8D19E0000006007F25
:10076000FFFFFFFEB5ADEDB57EE00000000000012B
:100770008000000000000000000003800000000076
:10078000000000000007C0000000000000000000A2
:1007900007C00000000000000000000FC0000000C3
:1007A0000000000000001FE000000000000000004A
:1007B000001FE00000000000000000003FE000001B
:1007C000000000000000003FF000000000000000FA
:1007D00000007FF0000000000000001FF87FF00024
:1007E0000000000000003FFE7FF00000000000005D
:1007F000003FFF7FF0000000000000001FFFFBE053
:10080000000000000000000FFFF9FFC00000000022
:1008100000000FFFF9FFF800000000000007FFF1E3
:10082000FFFF00000000000003FC73FFFF800000DA
:1008300000000001FE3FFFFF80000000000000FFFD
:100840001E0FFF000000000000007FFE1FFC0000E4
:1008500000000000003FFFFFF80000000000000063
:100860000FDFFFE0000000000000001F19FFC000C4
:100870000000000000003F3CFF00000000000000FE
:10088000007E7CF800000000000000007FFE7C007D
:1008900000000000000000FFFFFC0000000000005E
:1008A0000000FFFFFE0000000000000000FFFFFE50
:1008B0000000000000000001FFEFFE00000000004B
:1008C000000001FFCFFE0000000000000003FF0752
:1008D000FE0000000000000003FC07FE0000000016
:1008E00000000003F003FE00000000000000018093
:1008F00000FE000000000000000000007E0000007C
:10090000000000000000003E0000000000000000A9
:1009100000000C000000000000078000FC00000345
:10092000C0000000078001FC000003C000000007B9
:100930008001FC000003C0000000078001E000000F
:10094000001E000000078001E00000001E007FE3A1
:10095000F79FF9FDE7787BDFC0FFF7FFBFFDFDFFE5
:10096000787BDFC0FFF7FFBFFDFDFF787BDFC0F0C6
:10097000F787BC3DE1FF787BDE00F0F787BC3DE107
:10098000F0787BDE0000F787803DE1E0787BDE00D9
:100990007FF7879FFDE1E0787BDE00FFF787BFFDF3
:1009A000E1E0787BDE00F0F787BC3DE1E0787BDEBC
:1009B00000F0F787BC3DE1E0787BDE00F0F787BC14
:1009C0003DE1E0787BDE00FFF7FFBFFDE1E07FFB6C
:1009D000DFC0FFF7FFBFFDE1E07FFBDFC07CF3F38B
:1009E0009F3DE1E03E7BCFC0000000000000000022
:1009F000000000FFFFFFFFFFFFFFFFFFFFC0FFFF43
:100A0000FFFFFD68DB111A31C0FFFFFFFFFD2B5A0E
:100A1000FB6AEFC0FFFFFFFFFD4B5B3B1A33C0FFDC
:100A2000FFFFFFFD6B5BDB6AFDC053534431333086
:100A30003620616C6C6F636174696F6E20666169EA
:100A40006C6564000000000003C01FF03F3871FEB9
:100A5000EEC1DF7EDF78FFF8FFF8FFF07FE03FC0F8
:100A6000070000000000000003C01FF03F387FFEB9
:100A7000FFC1DF7EDF78DF78CE78F1F07FE03FC026
:100A80000700000000000000240027002A000000EA
:100A90000000250028002B00000000002300260095
:100AA00029000404040404040404020202020202F1
:100AB0000303030303030102040810204080010222
:100AC00004081020010204081020000000080002A1
:100AD00001000003040700000000000000002200E5
:100AE000FF2100003E187D1E11241FBECFEFD8E06D
:100AF000DEBFCDBF11E0A0E0B1E0E0E2F4E402C06F
:100B000005900D92AE37B107D9F723E0AEE7B1E01B
:100B100001C01D92A134B207E1F715E0C3E7D5E0AB
:100B200004C02197FE010E94FF1FC237D107C9F7F9
:100B30000E94C8180C9403220C940000089583307E
:100B400081F028F4813099F08230A9F0089587303F
:100B5000A9F08830C9F08430B1F4809180008F7D95
:100B600003C0809180008F7780938000089584B5C2
:100B70008F7784BD089584B58F7DFBCF8091B000C1
:100B80008F778093B00008958091B0008F7DF9CF6A
:100B9000CF93DF93ECECFAE08491E8EBFAE0D491A8
:100BA000E4EAFAE0C491CC23A1F081110E949F05F0
:100BB000EC2FF0E0EE0FFF1FE856F54FA591B49132
:100BC000EC91ED2381E090E009F480E0DF91CF919A
:100BD000089580E090E0FACF1F93CF93DF93282F02
:100BE00030E0F901E653F54F8491F901EA54F54FED
:100BF000D491F901EE55F54FC491CC23A9F0162FED
:100C000081110E949F05EC2FF0E0EE0FFF1FE257CD
:100C1000F54FA591B4918FB7F894EC91111108C0DC
:100C2000D095DE23DC938FBFDF91CF911F91089584
:100C3000DE2BF8CFCF93DF9390E0FC01EA54F54F21
:100C400024918E55954FFC0184918823D1F090E03A
:100C5000880F991FFC01EC57F54FA591B491FC0149
:100C6000E257F54FC591D491623071F49FB7F89473
:100C70003C91822F809583238C93E8812E2B2883AF
:100C80009FBFDF91CF9108958FB7F894EC912E2BF1
:100C90002C938FBFF6CF3FB7F89480914A02909182
:100CA0004B02A0914C02B0914D0226B5A89B05C005
:100CB0002F3F19F00196A11DB11D3FBFBA2FA92FDB
:100CC000982F8827BC01CD01620F711D811D911DD8
:100CD00042E0660F771F881F991F4A95D1F7089544
:100CE0008F929F92AF92BF92CF92DF92EF92FF923C
:100CF0004B015C010E944B066B017C010E944B067C
:100D00006C197D098E099F09683E73408105910524
:100D1000A8F321E0821A9108A108B10888EEC80E54
:100D200083E0D81EE11CF11C81149104A104B104DC
:100D300029F7FF90EF90DF90CF90BF90AF909F90FA
:100D40008F90089508950895AF92BF92CF92DF9249
:100D5000EF92FF920F931F93CF93DF936C017B0170
:100D60008B01040F151FEB015E01AE18BF08C01701
:100D7000D10759F06991D601ED91FC910190F08174
:100D8000E02DC6010995892B79F7C501DF91CF9137
:100D90001F910F91FF90EF90DF90CF90BF90AF9099
:100DA0000895FC0144815581608171818DEF92E04D
:100DB0000C94A406FC01538D448D252F30E0842F24
:100DC00090E0821B930B541710F0CF960895019773
:100DD0000895FC01918D828D981761F0A28DAE0F60
:100DE000BF2FB11D5D968C91928D9F5F9F73928FE7
:100DF00090E008958FEF9FEF0895FC01918D828D13
:100E0000981731F0828DE80FF11D858D90E00895DF
:100E10008FEF9FEF0895FC01918D228D892F90E037
:100E2000805C9F4F821B91098F739927089582E5FB
:100E300092E00E940B0721E0892B09F420E0822F29
:100E4000089580E090E0892B29F00E941707811116
:100E50000C9400000895FC01A48DA80FB92FB11DBA
:100E6000A35ABF4F2C91848D90E001968F739927E0
:100E7000848FA689B7892C93A089B1898C918370BE
:100E800080648C93938D848D981306C00288F389B7
:100E9000E02D80818F7D80830895EF92FF920F93E4
:100EA0001F93CF93DF93EC0181E0888F9B8D8C8D16
:100EB00098131AC0E889F989808185FF15C09FB70A
:100EC000F894EE89FF896083E889F98980818370CD
:100ED000806480839FBF81E090E0DF91CF911F917C
:100EE0000F91FF90EF900895F62E0B8D10E00F5F9D
:100EF0001F4F0F731127E02E8C8D8E110CC00FB673
:100F000007FCFACFE889F989808185FFF5CFCE010A
:100F10000E942B07F1CFEB8DEC0FFD2FF11DE35A53
:100F2000FF4FF0829FB7F8940B8FEA89FB8980818D
:100F30008062CFCFCF93DF93EC01888D8823B9F007
:100F4000AA89BB89E889F9898C9185FD03C08081D4
:100F500086FD0DC00FB607FCF7CF8C9185FFF2CF51
:100F6000808185FFEDCFCE010E942B07E9CFDF9175
:100F7000CF910895EF92FF920F931F93CF93DF933A
:100F8000EC01EC80FD806E157F050CF070C057FF02
:100F900004C0240F351F50E040E08E819F81FA018C
:100FA000E20FF31F8E179F071CF49C01241B350BC7
:100FB000121613060CF05BC0922F842F869586952F
:100FC00086958E9DD0018F9DB00D11246A0F7B1FD9
:100FD000AF8DB8A1A60FB71F477049F188E0841BF9
:100FE000482F682F70E0FB01E059FA4FE491281771
:100FF00008F063C0621B71092FEF30E002C0359525
:1010000027956A95E2F7E2230130110539F0B0F136
:101010000230110561F58C91E82702C08C91E82B14
:10102000EC93941720F12C813D81A20FB31FE92F7F
:10103000E41BE83078F00230110521F58E2F9C91E9
:1010400090959C932C813D81A20FB31F88508830CE
:10105000B0F7E770EE2359F0F0E0E859FA4FE49169
:1010600001301105F9F010F10230110519F1DF918D
:10107000CF911F910F91FF90EF900895E0958C9183
:10108000E823CECF81E00115110509F480E08195B8
:101090009E2F8C932C813D81A20FB31F98509830C6
:1010A000C0F7D7CF8C91E82BEC93E1CFE0958C91F2
:1010B000E823FACF8C91E827F7CF0130110509F426
:1010C000ADCFE0F20230110509F4A5CFAE0DBF1D82
:1010D000AECF0F931F93CF93DF9377FF04C0260FFC
:1010E000371F70E060E0DC011496CD91DC91FB01CC
:1010F000E20FF31FCE17DF071CF49E01261B370BF0
:10110000121613064CF5FA0157FD3796A3E0F59534
:10111000E795AA95E1F7EC9FD001ED9FB00DFC9FFC
:10112000B00D11246A0F7B1FDC015F96ED91FC91DD
:10113000E60FF71F4770552781E090E001C0880F48
:101140004A95EAF7482F0130110559F0A8F02E0F03
:101150003F1F02301105E1F0DF91CF911F910F91F8
:1011600008952E0F3F1FE217F307B1F38191DF01BE
:101170001197842B8C93F7CF80952E0F3F1FE2178A
:10118000F30751F39191DF01119798239C93F7CFC7
:10119000E217F30709F38191DF01119784278C93FC
:1011A000F7CF0F931F93FA01DC0156964C91569797
:1011B0004230E9F04330A1F1413061F514964D9190
:1011C0005C91DA01AE1BBF0BFD01E21BF30B77FD57
:1011D0000BC0DC0116964D915C916417750724F4E1
:1011E000AB01BF010E9469081F910F9108951496E9
:1011F0004D915C91DA01A61BB70BBD0161507109DD
:10120000DC0116964D915C91DA01AE1BBF0BFD011E
:10121000E21BF30B77FDE8CFAF010E94BA07E4CFE2
:1012200016964D915C91DA01A61BB70BBD0161507A
:101230007109CDCF0F931F93FA01DC0156964C91A3
:1012400056974230A9F0433091F1413019F5149688
:101250004D915C91DA01AE1BBF0BFD013197F7FD9B
:1012600004C0AB01BF010E94BA071F910F910895FE
:1012700014964D915C91DA01A61BB70BBD01DC0100
:1012800016964D915C91DA01AE1BBF0BFD013197B3
:10129000621B730BF7FDE9CFDC0116964D915C9153
:1012A000E417F50714F7AF010E946908DECF169620
:1012B0004D915C91DA01A61BB70BBD01621B730B4C
:1012C000CECFFC0177FD64C08085918568177907D2
:1012D0000CF05EC057FD5CC08285938548175907A6
:1012E0000CF056C086898230B1F0833029F181300C
:1012F00041F484819581841B950BAB01BC01615045
:1013000071092130310509F108F443C0223031055B
:1013100009F463C0089584819581DC01A61BB70B95
:10132000BD016150710986819781DC01A41BB50B59
:10133000AD0141505109E5CF86819781861B970BFE
:10134000BA01AC0141505109DCCFCA0157FD0796E3
:10135000A3E095958795AA95E1F7A481B5818A9F29
:1013600090018B9F300D9A9F300D1124620F731FD7
:10137000078CF0A1E02DE60FF71F4770552721E0FD
:1013800030E001C0220F4A95EAF78081822B8083EA
:101390000895CA0157FD079633E0959587953A95CC
:1013A000E1F7A481B5818A9F90018B9F300D9A9FB0
:1013B000300D1124620F731F078CF0A1E02DE60F92
:1013C000F71F4770552781E090E001C0880F4A95CC
:1013D000EAF7809590818923DACFCA0157FD0796F5
:1013E00023E0959587952A95E1F7A481B5818A9F99
:1013F00090018B9F300D9A9F300D1124620F731F47
:10140000078CF0A1E02DE60FF71F4770552721E06C
:1014100030E001C0220F4A95EAF780818227B7CFDA
:1014200008958EBD00000DB407FEFDCF8EB5089562
:101430008CBD9DBD08950895FC016370668B848109
:10144000958126813781613039F0633029F09187A9
:101450008087338722870895318720879387828703
:1014600008952F923F924F925F926F927F928F9248
:101470009F92AF92BF92CF92DF92EF92FF920F9323
:101480001F93CF93DF93CDB7DEB76A970FB6F8946B
:10149000DEBF0FBECDBF9A8F898F7A8369834A01E1
:1014A000D22E18870F833701BC2CDC0159962D9161
:1014B0003C915A972115310509F015C118968D9167
:1014C0009C911997681779070CF0D7C11A968D91DE
:1014D0009C91481759070CF0D0C14C2C512CB6E008
:1014E000CB9E600D711D11247C876B871616170625
:1014F0000CF0C3C1EA2DF0E0FA87E98793E0EE0F24
:10150000FF1F9A95E1F7F88BEF87CF01840F951FA6
:10151000181619060CF0B1C1A98DBA8D58968C9188
:10152000811104C0BFEABD1508F4D394A98DBA8D0A
:10153000ED91FC9111970284F385E02DCD01099581
:10154000B5E0DB9EC0011124E981FA81FC83EB83C5
:10155000312C212C9C0128593F4F388F2F8B4A2D3D
:1015600050E05E8B4D8BEF89F88DE20DF31D4491B9
:101570009E828D82D12CC12C69817A81620D731D6E
:101580007A8B698B842F90E09C8B8B8BE98DFA8D05
:10159000A081B18140FF82C0F1E0BF126FC0AF12E5
:1015A0006DC01C96ED91FC912F813885A4014C0DE6
:1015B0005D1D69897A89898D9A8D0995EB89FC89E8
:1015C000F595E7954E2F5FEFC51AD50A6D817E819F
:1015D0008D899E89680F791F7E836D8398E0C91677
:1015E000D10481F6AFEF2A1A3A0AEB81FC81E40DAF
:1015F000F51DFC83EB83F5E02F16310409F0B3CF22
:101600002F81388526153705B9F0A98DBA8DED9152
:10161000FC91B1E0BB1257C0AB1255C069817A8111
:101620006B5F7F4F0088F189E02D830128E030E077
:10163000A401898D9A8D0995A98DBA8DED91FC91A2
:1016400011970688F789E02DCD016A960FB6F894B8
:10165000DEBF0FBECDBFDF91CF911F910F91FF90E5
:10166000EF90DF90CF90BF90AF909F908F907F9042
:101670006F905F904F903F902F9009941E96ED9140
:10168000FC91EF80F88409851A8592014D815E8175
:101690006B817C81898D9A8D099590CF2F813885BA
:1016A0002615370509F48ACF31E0B31207C0A3121B
:1016B00005C01C96ED91FC91930178CF1E96ED919B
:1016C000FC917301E0CF6B857C85641975090684F4
:1016D000F785E02D73010F8518899201A401898D8A
:1016E0009A8D0995A9CFF901349694913297459135
:1016F0005491D91AB7E0DB9E400D511D1124F90118
:10170000259134913C8B2B8BFA0125903490FA0172
:101710003296749031963491398B3296649031962A
:10172000449041E04C1518F04A1508F07FC0662D32
:10173000062C000C770B7C836B83842D042C000C0F
:10174000990B9E838D83A98DBA8DED91FC91119794
:101750000284F385E02DCD010995512CD12CC12CAB
:10176000EA2DF0E0FA87E9872B2D30E03C872B87C4
:10177000A401440D511D47FC5A95588F4F8B698128
:101780007A81660D711D67FC7A957E876D877989F0
:10179000C71608F051CF2C2D30E04D815E81420FED
:1017A000531FA985BA854A9FC0014B9F900D5A9F30
:1017B000900D1124FC01E80DF91DF88BEF87852DA4
:1017C000612C4F89588D420F531F5E8B4D8B6714D0
:1017D00008F050C044244394480E877041F4C1017E
:1017E0000196EB89FC89E20DF31DD4901C01D7FE14
:1017F00019C0A98DBA8DED91FC91662D70E0B1E014
:10180000BB1219C0AB1217C02D853E85620F731F26
:101810000484F585E02D2F8138854D895E89898D79
:101820009A8D0995DD0C6394842DD1CF1E821D8283
:101830001C821B8288CF4B815C81640F751FAB8536
:10184000BC856A9FC0016B9F900D7A9F900D1124FB
:1018500069817A81680F791F0684F785E02DEF8012
:10186000F88409851A859D014F855889898D9A8D3F
:101870000995D8CF570CC3948ACF6A960FB6F894BF
:10188000DEBF0FBECDBFDF91CF911F910F91FF90B3
:10189000EF90DF90CF90BF90AF909F908F907F9010
:1018A0006F905F904F903F902F9008958F929F92EE
:1018B000AF92CF92EF92FF920F931F93CF93DF934C
:1018C000EC01262F898D9A8D009709F051C06A305E
:1018D000D1F41D861C868D8948E0849F90011124D7
:1018E0008E859F85820F931F9F878E8781E090E072
:1018F000DF91CF911F910F91FF90EF90CF90AF901C
:101900009F908F9008956D3089F3CC88AD888F8932
:101910008823C1F08C859D8536E0C39E800D911D86
:101920001124488559854817590764F44E855F8509
:101930001D861C8638E0A39EC0011124840F951FCC
:101940009F878E87EA88FB88088919894E855F857D
:101950006C857D85CE010E94310A2C898C859D8500
:1019600046E0249F800D911D11249D878C87BECF5A
:101970006A3069F41D861C86FC013896E4912D8935
:101980008E859F85E29F800D911D1124ADCF6D3016
:1019900009F4ACCFFC0134963491631708F4A6CF58
:1019A0003296E491E61708F4A1CFFC0132968590B7
:1019B0009490462F431B342F47E0349F800C911C9A
:1019C0001124F401329634913196E4913323A9F134
:1019D000EE2399F1CC88F4013596E491AD884F89D6
:1019E000442301F10E2E000CFF0BE30FF11DCE9EE0
:1019F000A001CF9E500D11246C857D85460F571F89
:101A000068857985641775076CF44E855F851D863A
:101A10001C86FC013896E491AE9E400D511D1124A8
:101A20005F874E87EA88FB88088919894E855F851C
:101A30006C857D85CE010E94310AF4013496E491D3
:101A40002C898C859D85E29F800D911D11248DCF61
:101A50006F927F928F929F92AF92BF92CF92DF92BE
:101A6000EF92FF920F931F93CF93DF93EC016B01E3
:101A70005A0139014801E881F9810284F385E02D9A
:101A80000995E881F9810288F389E02D87019301A6
:101A9000A501B601CE010995A501480D591D41507A
:101AA0005109E881F9810288F389E02D9301B6019B
:101AB000CE010995E881F9810088F189E02D940132
:101AC000A501B601CE010995C60CD71CB60161501F
:101AD0007109E881F9810088F189E02D9401A5015F
:101AE000CE010995E881F9810688F789E02DCE01BC
:101AF000DF91CF911F910F91FF90EF90DF90CF90EA
:101B0000BF90AF909F908F907F906F9009946F924D
:101B10007F928F929F92AF92BF92CF92DF92EF927D
:101B2000FF920F931F93CF93DF935C01EB016A0148
:101B3000490138018701DC01ED91FC9162177307BF
:101B400019F5641675062CF0962D872D3A01C92ECD
:101B5000D82E9601261937092F5F3F4F048CF58D3B
:101B6000E02DA301BE01C5010995DF91CF911F9121
:101B70000F91FF90EF90DF90CF90BF90AF909F902C
:101B80008F907F906F9008954615570591F4261712
:101B9000370724F0892D4B01C22FD82F9E01281919
:101BA00039092F5F3F4F068CF78DE02DA601B40158
:101BB000DACF0284F385E02D0995D501ED91FC91F2
:101BC0000488F589E02D83019401A601BE01C501B9
:101BD0000995D501ED91FC910688F789E02DC501A5
:101BE000DF91CF911F910F91FF90EF90DF90CF90F9
:101BF000BF90AF909F908F907F906F900994EF92DD
:101C0000FF920F931F93DC011A960D911C911B9765
:101C100018962D913C911997ED91FC9100A0F1A19E
:101C2000E02D7B0150E040E070E060E009951F91FD
:101C30000F91FF90EF9008954F925F926F927F9275
:101C40008F929F92AF92BF92CF92DF92EF92FF92CC
:101C50000F931F93CF93DF936C012B015A0139012E
:101C60004801DC01ED91FC910284F385E02D09959A
:101C7000E201640C751CD601ED91FC91C615D705E7
:101C80005CF40088F189E02D87019401A501BE0173
:101C9000C60109952196EFCF0688F789E02DC60188
:101CA000DF91CF911F910F91FF90EF90DF90CF9038
:101CB000BF90AF909F908F907F906F905F904F906C
:101CC00009948F929F92AF92BF92CF92DF92EF9240
:101CD000FF920F931F93CF93DF93EC015B014A01B7
:101CE0006901E881F9810284F385E02D0995950168
:101CF0002C0D3D1D21503109E881F9810488F589B9
:101D0000E02D78018401A401B501CE010995E88197
:101D1000F9810688F789E02DCE01DF91CF911F91DF
:101D20000F91FF90EF90DF90CF90BF90AF909F907A
:101D30008F9009948F929F92AF92BF92CF92DF9231
:101D4000EF92FF920F931F93CF93DF93EC015B0110
:101D50004A0169017801E881F9810284F385E02D67
:101D60000995C80CD91C860101501109E881F98137
:101D70000488F589E02D9501A401B501CE010995EE
:101D8000E881F9810688F789E02DCE01DF91CF91B6
:101D90001F910F91FF90EF90DF90CF90BF90AF9089
:101DA0009F908F900994EF92FF920F931F93DC0105
:101DB000ED91FC9100A0F1A1E02D09951F910F91EB
:101DC000FF90EF9008950F931F93DC01ED91FC912C
:101DD000068CF78DE02D09951F910F9108950F93B3
:101DE0001F93DC01ED91FC91048CF58DE02D09959C
:101DF0001F910F910895DC01ED91FC910084F18514
:101E0000E02D09943F924F925F926F927F928F9252
:101E10009F92AF92BF92CF92DF92EF92FF920F9379
:101E20001F93CF93DF9300D000D0CDB7DEB75C0116
:101E30003B016A014901280187E0480E511C93E0EB
:101E4000559447949A95E1F7CA018E0D9F1D9A8388
:101E50008983F12CE12C312C1C821B828B819C818B
:101E600087709927330C892B61F4EB81FC8183E027
:101E7000F595E7958A95E1F7EE0DFF1DE80DF91D43
:101E8000349037FE0AC021E030E0A6016B817C81EE
:101E9000660D771DC5010E94FB0E8B819C8101960A
:101EA0009C838B8308171907C9F69FEFC91AD90AB3
:101EB000E40CF51C89819A81C816D90669F60F9041
:101EC0000F900F900F90DF91CF911F910F91FF9086
:101ED000EF90DF90CF90BF90AF909F908F907F90CA
:101EE0006F905F904F903F9008952F923F924F9246
:101EF0005F926F927F928F929F92AF92BF92CF929A
:101F0000DF92EF92FF920F931F93CF93DF9300D056
:101F100000D000D0CDB7DEB73C016A013E832D83EF
:101F2000FC82EB825801A41AB50AB7FE03C0B19433
:101F3000A194B1088D809E80861A970A97FE03C0EF
:101F40009194819491088A149B045CF0902F812FC6
:101F50000D811E819D838E839C2D8D2D6B01692F9C
:101F6000782F0C151D055CF09D818E817E836D831D
:101F7000692F782F902F812F8601C92ED82E160118
:101F8000201A310A2B012D813E81421A530A57FE35
:101F900003C0519441945108710137FE03C03FEFD3
:101FA000E31AF30AF594E7948D819E8186179707CB
:101FB0005CF5A1E0B0E0BA83A983C016D1064CF16C
:101FC000D301ED91FC910484F585E02D2B813C81BA
:101FD000A8016D817E818A149B041CF04D815E8175
:101FE000B801C3010995E418F508F7FE0AC02D8170
:101FF0003E8189819A81280F391F3E832D83E20C0F
:10200000F31C0F5F1F4FD9CF2FEF3FEF3A83298388
:10201000D4CF26960FB6F894DEBF0FBECDBFDF91AA
:10202000CF911F910F91FF90EF90DF90CF90BF90D5
:10203000AF909F908F907F906F905F904F903F9068
:102040002F90089508952091E401260F3327331F20
:1020500021323105ECF420910802FC0190E080E08F
:10206000243069F082E00895A091E4012191AC014F
:102070004C535E4FA40FB52FB11D2C9301968617BC
:1020800098F38091E401680F6093E40180E0089583
:1020900081E008951092080281E080930A02109274
:1020A000090261E082E10E94EC0561E083E10E94A7
:1020B000EC05E9EBF0E080818E7F808380818D7F6D
:1020C000808388E48093B80085E48093BC00089501
:1020D000CF93DF9391E09093C3018823B9F0C0912F
:1020E000B800D091BA008091BC008A7B8093BC007C
:1020F00060E082E10E94EC0560E083E10E94EC0573
:102100000E944A10D093BA00C093B800DF91CF91DB
:102110000895E091340280913302E81730F4F0E042
:10212000E256FE4F808190E008958FEF9FEF089573
:1021300090913402809133022FEF3FEF981748F4CB
:10214000E92FF0E0E256FE4F208130E09F5F909350
:102150003402C90108958091330290913402891BA1
:10216000990B0895CF92DF92EF92FF920F931F93F6
:10217000CF93DF937C01CB018A012091510222236E
:1021800089F0EB016B01C40ED51ECC15DD0569F09D
:102190006991D701ED91FC910190F081E02DC7018B
:1021A0000995F3CF642F0E942310C801DF91CF91CE
:1021B0001F910F91FF90EF90DF90CF900895CF93F4
:1021C000DF931F92CDB7DEB769832091510222239E
:1021D000F9F020914E02203258F021E030E0FC016D
:1021E0003383228390E080E00F90DF91CF910895B8
:1021F00080914F02E82FF0E0E258FE4F99819083E2
:102200008F5F80934F0280934E0281E090E0ECCF8D
:1022100061E0CE0101960E942310F7CFCF92DF92AA
:10222000EF92FF920F931F93CF93DF93D0914E02C3
:1022300081E0D13208F09CC0C09150020E944B0650
:102240006B017C018091080281116CC082E0809357
:10225000080281E080930A028FEF809307021092B8
:102260002C02D0932B02AEE7B1E0EBE0F2E080E08D
:10227000D8138DC010922D0280912D02CC0FC82B47
:10228000C0932D0280910902813009F084C0109220
:1022900009020E944B066B017C0180912D02809304
:1022A000BB008091BF019091C001A091C101B0918C
:1022B000C201892B8A2B8B2BA1F00E944B06009127
:1022C000BF011091C0012091C1013091C2016C1970
:1022D0007D098E099F09061717072807390708F493
:1022E00042C08091BC0083FDD8CF85EC8093BC00B8
:1022F0000E944B066B017C0180910802823009F438
:102300004CC0809107028F3F09F469C08091070299
:10231000803209F466C080910702803309F463C0FB
:1023200084E026C08091BF019091C001A091C101BD
:10233000B091C201892B8A2B8B2B09F483CF0E9489
:102340004B060091BF011091C0012091C101309155
:10235000C2016C197D098E099F0906171707280706
:10236000390708F06FCF8091BE010E94681085E0A8
:1023700010924F0210924E0210925102DF91CF91B3
:102380001F910F91FF90EF90DF90CF9008959D9156
:1023900091938F5F6DCF85EEA9CF8091BF01909112
:1023A000C001A091C101B091C201892B8A2B8B2B56
:1023B00009F4A2CF0E944B060091BF011091C00109
:1023C0002091C1013091C2016C197D098E099F09CC
:1023D000061717072807390708F08ECFC4CF80E00B
:1023E000C7CF82E0C5CF83E0C3CFEF92FF920F93B8
:1023F0001F93CF93DF937C01C62F80911A03909196
:102400001B03009709F459C020911E0331E030935B
:1024100051022093500210924F0210924E02DC01A2
:10242000ED91FC910190F081E02D60E0099587012C
:10243000EE24E394F12CD1E0C15080911A039091E5
:102440001B03CF3F91F1B0E2EB16F104D8F00E94EC
:102450000E1180911A0390911B0320911E03D093BB
:1024600051022093500210924F0210924E02DC0152
:10247000ED91FC910190F081E02D60E00995EE2452
:10248000E394F12C80911A0390911B03F80164915D
:10249000DC01ED91FC910190F081E02D0995BFEFF9
:1024A000EB1AFB0A0F5F1F4FC7CFDF91CF911F9130
:1024B0000F91FF90EF900C940E11E0912A03F09190
:1024C0002B0390818091300380958923808387013D
:1024D000C15008F438C0F80184912091180330915C
:1024E0001903232B29F00E94110A0F5F1F4FF0CF11
:1024F00028E030E040E8E0912603F0912703909136
:102500002E03582F5423D9F05081952B9083E091BE
:102510002803F0912903908150912F03952B9083EC
:10252000E0912803F0912903508190912F03909519
:1025300095239083469521503109E9F6D6CF5081F5
:1025400090959523E3CFDF91CF911F910F91FF904D
:10255000EF9008951F93CF93DF93EC018D8D9E8DA7
:10256000009721F1162F29A131E0309351022093D9
:10257000500210924F0210924E02DC01ED91FC913C
:102580000190F081E02D60E009958D8D9E8DDC013C
:10259000ED91FC910190F081E02D612F09958D8DD9
:1025A0009E8DDF91CF911F910C940E11ADA5BEA50C
:1025B0009C918BA9809589238C938B8D9C8D892BE5
:1025C00031F0862FDF91CF911F910C94110A28E0F2
:1025D00030E080E8A9A5BAA599A9462F4823C1F003
:1025E0004C91942B9C93ABA5BCA59C914AA9942B90
:1025F0009C93ABA5BCA54C919AA9909594239C93D0
:1026000086952150310931F7DF91CF911F910895BF
:102610004C9190959423E6CFDF92EF92FF920F9327
:102620001F93CF93DF9380911A0390911B03892B03
:1026300009F498C020913203309133034091340360
:102640005091350360E074E284EF90E00E94CE1F69
:1026500020513109410951095695479537952795DC
:102660002093B80065E08EED9AE00E94F51160912C
:10267000010361508DEF92E00E94AA1220910303A2
:1026800030910403C901079697FD079633E09595AD
:1026900087953A95E1F72091010330910203829FDB
:1026A0008001839F100D929F100D1124C0911C0377
:1026B000D0911D0380911A0390911B030C0F1D1FD5
:1026C000009709F48FC020911E0331E0309351022E
:1026D0002093500210924F0210924E02DC01ED91B5
:1026E000FC910190F081E02D60E40995EE24E394E3
:1026F000F12CDD24D39480911A0390911B030C17C5
:102700001D0709F446C0B0E2EB16F104D8F00E94B0
:102710000E1180911A0390911B0320911E03D092F9
:1027200051022093500210924F0210924E02DC018F
:10273000ED91FC910190F081E02D60E40995EE248B
:10274000E394F12C80911A0390911B036991DC01B1
:10275000ED91FC910190F081E02D0995BFEFEB1A0E
:10276000FB0AC9CF8091180390911903892B31F08E
:1027700080913B0390913C030E94180AE0912C0346
:10278000F0912D039081809131038095892380837E
:1027900069CF0E940E1180911A0390911B03892B1F
:1027A00009F461C02091360330913703409138031A
:1027B0005091390360E074E284EF90E00E94CE1FF4
:1027C000205131094109510956954795379527956B
:1027D0002093B800DF91CF911F910F91FF90EF9060
:1027E000DF900895E0912A03F0912B03808190916E
:1027F0003003892B80830C171D0769F28991209182
:10280000180330911903232B19F00E94110AF3CFFA
:1028100028E030E040E8E0912603F0912703909112
:102820002E03582F5423D9F05081952B9083E0919B
:102830002803F0912903908150912F03952B9083C9
:10284000E0912803F0912903508190912F039095F6
:1028500095239083469521503109E9F6CCCF5081DC
:1028600090959523E3CFE0912C03F0912D03808187
:1028700090913103892B8083ADCFEF92FF920F931C
:102880001F93CF93DF93D0E0C0E080910703909136
:102890000803C817D907A4F4209105033091060353
:1028A000EE24E394F12C0AE010E0AE0170E060E069
:1028B0008DEF92E00E941C0E0E940C132A96E5CF29
:1028C000D0E0C0E08091070390910803C817D907B2
:1028D0009CF42091050330910603F12CE12C0AE0D1
:1028E00010E0AE0170E060E08DEF92E00E941C0EFF
:1028F0000E940C132A96E6CFDF91CF911F910F9182
:10290000FF90EF9008951F93CF93DF93EC01162F64
:102910008D8D9E8D892BB1F12DA93EA94FA958AD62
:1029200060E074E284EF90E00E94CE1F20513109F4
:102930004109510956954795379527952093B80039
:1029400066EA111167EACE010E94AA128D8D9E8D52
:10295000892B41F129AD3AAD4BAD5CAD60E074E23D
:1029600084EF90E00E94CE1F2051310941095109A6
:1029700056954795379527952093B800DF91CF91CD
:102980001F9108958B8D9C8D892B21F08EAD9FAD6D
:102990000E94180AEFA5F8A990818CA98095892337
:1029A0008083CECFEFA5F8A980819CA9892B808355
:1029B000E5CF90E080E00895209103033091040377
:1029C000C901079697FD079623E0959587952A9567
:1029D000E1F72091010330910203829FA001839FC0
:1029E000500D929F500D112470E060E080911C0307
:1029F00090911D030C94F5210E94E721FC01808138
:102A00009181009711F00C94A1200895EF92FF920C
:102A10000F931F93CF93DF93EC017B018A01888191
:102A20009981009729F02A813B812417350788F482
:102A3000B8016F5F7F4F0E942A21009791F0998320
:102A400088831B830A832C813D81232B11F4FC0195
:102A500010821D830C83B701888199810E94FC211B
:102A60000CC088819981009711F00E94A1201982E1
:102A700018821D821C821B821A82CE01DF91CF91A7
:102A80001F910F91FF90EF900895EF92FF920F9397
:102A90001F93CF93DF93CDB7DEB762970FB6F8944D
:102AA000DEBF0FBECDBF8C01CB01F80111821082B9
:102AB00013821282158214824AE09E012F5F3F4FDB
:102AC0007901B9010E94301FF70101900020E9F758
:102AD0003197AF014E195F09B701C8010E94061571
:102AE00062960FB6F894DEBF0FBECDBFDF91CF91D7
:102AF0001F910F91FF90EF900895FB01DC0111965B
:102B00001C921E9213961C921E92129715961C925E
:102B10001E9214978617970749F06081718161159D
:102B2000710521F0448155810C9406150895CF92CA
:102B3000DF92EF92FF920F931F93CF93DF9300D01A
:102B400000D000D0CDB7DEB77C016B0180910503CA
:102B50009091060397FD019695958795F60144811E
:102B600055819A01220F331F240F351F8C01021B40
:102B7000130BB601CE0101960E947D1510930A0336
:102B800000930903F0920C03E0920B03CE0101962F
:102B90000E94D106CE0101960E94FE14B601CE011C
:102BA00001960E947D150F5F1F4F10930A0300933B
:102BB0000903F0920C03E0920B03CE0101960E94F0
:102BC000D106CE0101960E94FE1426960FB6F89407
:102BD000DEBF0FBECDBFDF91CF911F910F91FF9050
:102BE000EF90DF90CF900895EF92FF920F931F9395
:102BF000CF93DF9300D000D000D0CDB7DEB78C01EB
:102C00007B01CE0101960E947D1580910503909174
:102C1000060397FD019695958795F70144815581A7
:102C20009A01220F331F240F351F821B930B9093A1
:102C30000A038093090310930C0300930B03CE0146
:102C400001960E94D106CE0101960E94FE1426969E
:102C50000FB6F894DEBF0FBECDBFDF91CF911F91AD
:102C60000F91FF90EF900895FC0111821082138262
:102C7000128215821482FB0101900020E9F731973E
:102C8000AF01461B570B0C94061585ED8093BC00D5
:102C90008091BF019091C001A091C101B091C2018A
:102CA0000796A11DB11D23E0B695A7959795879529
:102CB0002A95D1F72091BC0024FD03C01092080290
:102CC00008954091BF015091C0016091C101709180
:102CD000C201452B462B472B69F30097A105B1058F
:102CE00041F02AE22A95F1F700C00197A109B10944
:102CF000E1CF8091BE010C9468101F920F920FB625
:102D00000F9211242F933F938F939F93AF93BF9371
:102D10008091460290914702A0914802B0914902E9
:102D20003091450223E0230F2D3758F50196A11D60
:102D3000B11D209345028093460290934702A093D1
:102D40004802B093490280914A0290914B02A091AF
:102D50004C02B0914D020196A11DB11D80934A0213
:102D600090934B02A0934C02B0934D02BF91AF9150
:102D70009F918F913F912F910F900FBE0F901F90B9
:102D8000189526E8230F0296A11DB11DD2CF1F92E0
:102D90000F920FB60F9211242F933F934F935F938F
:102DA0006F937F938F939F93AF93BF93EF93FF9313
:102DB00082E592E00E942B07FF91EF91BF91AF91C6
:102DC0009F918F917F916F915F914F913F912F9143
:102DD0000F900FBE0F901F9018951F920F920FB675
:102DE0000F9211242F938F939F93EF93FF93E09172
:102DF0006202F09163028081E0916802F0916902C1
:102E000082FD1BC0908180916B028F5F8F73209138
:102E10006C02821741F0E0916B02F0E0EE5AFD4F38
:102E2000958F80936B02FF91EF919F918F912F91DE
:102E30000F900FBE0F901F9018958081F4CF1F92B6
:102E40000F920FB60F9211242F933F934F935F93DE
:102E50006F937F938F939F93AF93BF93EF93FF9362
:102E60008091B900887F803609F44AC0F0F5883235
:102E700009F4A7C018F5803109F49BC0B8F4882381
:102E800009F4F9C0883009F494C0FF91EF91BF9123
:102E9000AF919F918F917F916F915F914F913F91F2
:102EA0002F910F900FBE0F901F901895883109F445
:102EB00088C0803251F78093070214C0803409F42F
:102EC0009DC040F48033B9F38833F9F6809307024C
:102ED00085ECB0C0803509F485C0883509F496C00A
:102EE000883499F60E944516D0CF883909F48CC0F1
:102EF00038F5883729F050F4883611F0803729F6F4
:102F000083E0809308021092060257C0883809F4C3
:102F10007BC0803919F0803809F0B7CF8091060264
:102F2000803208F071C0E091060281E08E0F80933C
:102F300006028091BB00F0E0EA51FE4F80833DC065
:102F4000803B39F0E0F4803A09F479C0883A09F01E
:102F50009CCF84E0809308021092E5011092E40176
:102F6000E0913102F091320209958091E4018111E2
:102F70000FC081E08093E4011092C40109C0803C3D
:102F800009F4A6CF883C09F4A3CF883B09F07DCF94
:102F9000E091E50181E08E0F8093E501F0E0EC53D4
:102FA000FE4F80818093BB009091E5018091E40108
:102FB00029C080912D028093BB0085EC8093BC00DA
:102FC00064CF90912C0280912B02981758F5E091D4
:102FD0002C0281E08E0F80932C02F0E0E55FFD4F24
:102FE0008081E9CFE0912C0281E08E0F80932C024A
:102FF0008091BB00F0E0E55FFD4F808390912C0253
:1030000080912B029817C8F285E8D8CFE0912C0266
:1030100081E08E0F80932C028091BB00F0E0E55F91
:10302000FD4F808380910A0281115CCF81E0809303
:10303000090284EA8093BC001092080226CF85EC36
:103040008093BC001092080280910602803230F416
:10305000E0910602F0E0EA51FE4F10826091060214
:1030600070E0E0912F02F091300286EE91E0099538
:10307000109206020ACF1092070234CFE2E5F2E086
:103080001382128248EE53E060E070E0448355837F
:103090006683778380E191E09183808385EC90E083
:1030A0009587848784EC90E09787868780EC90E012
:1030B000918B808B81EC90E0938B828B82EC90E003
:1030C000958B848B86EC90E0978B868B118E128E7D
:1030D000138E148EA1EFB2E013961C921E921297DB
:1030E00014964D935D936D937C93179782E291E0D4
:1030F00011969C938E93EDEFF2E01382128220E8FA
:1031000030E03583248380E490E0978386833187A1
:10311000208793878287168A1586148617861686D7
:1031200081E0858B848B2FEF3FEF338B228B318BAC
:10313000208B878B108E128E118E84E391E0918309
:103140008083148E138EB68FA58F10A2178E8FEFEB
:1031500084A385A386A387A384E080A780E89AE15F
:10316000A6E0B0E085AB96ABA7ABB0AF80EA96E83F
:10317000A1E0B0E081AF92AFA3AFB4AF80E586AF7E
:1031800017AE80E290E09093F0028093EF020895F2
:10319000CF93DF93CDB7DEB72C970FB6F894DEBF91
:1031A0000FBECDBF789484B5826084BD84B5816044
:1031B00084BD85B5826085BD85B5816085BD809102
:1031C0006E00816080936E0010928100809181007A
:1031D0008260809381008091810081608093810072
:1031E000809180008160809380008091B100846034
:1031F0008093B1008091B00081608093B000809195
:103200007A00846080937A0080917A008260809353
:103210007A0080917A00816080937A0080917A00B0
:10322000806880937A001092C100E0916202F09170
:10323000630282E08083E0915E02F0915F0210827F
:10324000E0916002F09161028FEC808310926A023B
:10325000E0916602F091670286E08083E09164026B
:10326000F0916502808180618083E0916402F09139
:103270006502808188608083E0916402F09165023C
:10328000808180688083E0916402F0916502808192
:103290008F7D808380911C0390911D03892B39F1D0
:1032A0000E94DC1480910303909104036091010358
:1032B00070910203813291050CF052C0AC01405272
:1032C000510957FF02C04F5F5F4F559547956357B0
:1032D000710977FF02C06F5F7F4F75956795F0E2C8
:1032E000EF2EF12C03E710E02AE835E051C02091E1
:1032F000030330910403C901079697FD079623E065
:10330000959587952A95E1F7209101033091020365
:10331000AC01429FC001439F900D529F900D11241C
:103320000E94052090931D0380931C03892B09F0B4
:10333000B7CF0AE21AE0F8016491662341F082E512
:1033400092E00E944D070F5F1F4F892BA1F742E0CB
:1033500050E06CE571E082E592E00E94A406FFCFA8
:10336000AC014054510957FF02C04F5F5F4F559564
:1033700047956255710977FF02C06F5F7F4F759562
:10338000679510E4E12EF12C02E510E02AE637E023
:103390008DEF92E00E94020F82E080931F038091E4
:1033A0001A0390911B03892B09F44AC28CE3809382
:1033B0001E03109234021092330210924F021092A8
:1033C0004E020E944A1082EA96E090933202809365
:1033D000310283EA96E09093300280932F0280912D
:1033E000250387FD1EC061E00E941A0661E08091FE
:1033F00025030E94EC0561E070E080E090E00E940F
:10340000700660E0809125030E94EC056AE070E0A0
:1034100080E090E00E94700661E0809125030E94A8
:10342000EC0580911A0390911B03892B09F4C7C204
:10343000209132033091330340913403509135038E
:1034400060E074E284EF90E00E94CE1F20513109C9
:103450004109510956954795379527952093B8000E
:1034600064E086E895E00E94F511609103036150E5
:103470008DEF92E00E94AA1264E082E895E00E943B
:10348000F51180911F0364E1813009F460E18DEF53
:1034900092E00E94AA1264E08EE795E00E94F51186
:1034A0008FE880933A038091010390910203803862
:1034B000910509F09DC2809103039091040380342B
:1034C000910509F0A5C280911F03813009F48EC2D5
:1034D0008FEC80933A0312E16AED8DEF92E00E9447
:1034E000AA12612F8DEF92E00E94AA1261E88DEF7F
:1034F00092E00E94AA1260913A038DEF92E00E943E
:10350000AA1269ED8DEF92E00E94AA1280911F032A
:1035100061EF813009F462E28DEF92E00E94AA121D
:1035200066E088E795E00E94F51180911A0390917A
:103530001B03892B09F470C22091360330913703A5
:10354000409138035091390360E074E284EF90E0D9
:103550000E94CE1F205131094109510956954795C6
:10356000379527952093B80081E090E09093100361
:1035700080930F0390930E0380930D030E94DC143D
:1035800062E082E00E941A0680E480937C008091D1
:103590007A00806480937A0080917A0086FDFCCF67
:1035A0006091780070917900072E000C880B990BC0
:1035B000611571058105910511F00E94271FBCEF6F
:1035C0002B2E33243A94AA24A394B12C8091000189
:1035D00090910101892B09F03EC20E94DC140E94E7
:1035E000C805892B21F43092440220924302809135
:1035F00043029091440201969093440280934302C7
:103600002091410230914202820F931F97FD0EC21A
:1036100090934202809341028091070390910803A6
:10362000AC014F50510920914102309142022417C0
:1036300035075CF0409790934202809341024EEF31
:103640005FEF509344024093430280914302909174
:10365000440297FFF0C10E94D81E22E030E040E013
:1036600050E00E94651F4091410250914202E0915A
:10367000EF02F091F002A0E1EA2EF12C00E110E05F
:1036800024E63AE0672B682B692B11F024E43AE03A
:10369000BF018DEF92E00E94020F9DE3892E92E020
:1036A000992E29E3C22E22E0D22EF401008111814D
:1036B000F60160817181EE24E394F12C2AE030E080
:1036C00050E040E08DEF92E00E941C0EF40140813A
:1036D00051810091070310910803041B150B025E32
:1036E0001F4F425E5F4FF601608171812AE030E03A
:1036F0008DEF92E00E941C0EF6018081918197FF70
:1037000021C080910703909108034E972C01990FD7
:103710006608770860E070E0CB0114141504160405
:10372000170434F40E94D81EA30192010E94651F61
:10373000F401718360838091050390910603F60183
:1037400091838083F601808191814091EF025091B5
:10375000F00284179507B1F42091370230913802B6
:103760002F5F3F4F3093380220933702609135022C
:1037700070913602621773070CF4B9017093360228
:10378000609335029A01215F3F4F2817390704F1F2
:103790000A9648175907E4F4F40180819181209139
:1037A0004102309142022817390734F0215F3F4F20
:1037B0004E962817390764F00E940C1364EF71E0ED
:1037C00080E090E00E947006B0920101A09200019A
:1037D000F601808191810497819391936F01F2E0CA
:1037E0008F0E911C4DE3C41642E0D40609F05DCF64
:1037F0006091370270913802CE0101960E94451502
:10380000BE016F5F7F4F90E080E00E949715CE0170
:1038100001960E94FE140E940C1362E370E080E0A7
:1038200090E00E947006E0E0F0E0EF2B09F4CECECD
:103830000E941707882309F4C9CE0E940000C6CE53
:1038400061E0809123030E941A0661E080912403C5
:103850000E941A0680912303082E000C990BFC018C
:10386000EE55F54FE491F0E0EE0FFF1FE257F54FF4
:103870002591349130932B0320932A03FC01EA54C1
:10388000F54FE491E093300380912403082E000C5F
:10389000990BFC01EE55F54FE491F0E0EE0FFF1FA0
:1038A000E257F54FA591B491B0932D03A0932C034B
:1038B000FC01EA54F54FE491E09331038C91E82B3D
:1038C000EC938091180390911903892B09F434C06B
:1038D0001FB7F89480912E02811127C0ECEAFAE01C
:1038E0008491E0ECFAE09491E82FF0E0EE0FFF1FF6
:1038F000EC57F54FA591B491EC91E92321F461E0E7
:103900008AE00E94EC0561E08AE00E941A068CB50C
:1039100080618CBD8CB580648CBD61E08DE00E94BF
:103920001A0661E08BE00E941A0680912E028F5FDA
:1039300080932E021FBF53CD61E0809121030E942E
:103940001A0661E0809122030E941A0680912103E9
:10395000082E000C990BFC01EE55F54FE491F0E0B8
:10396000EE0FFF1FE257F54F259134913093270357
:1039700020932603FC01EA54F54FE491E0932E03D3
:1039800080912203082E000C990BFC01EE55F54F97
:10399000E491F0E0EE0FFF1FE257F54FA591B491CF
:1039A000B0932903A0932803FC01EA54F54FE49156
:1039B000E0932F038C91E095E823EC9310CD809158
:1039C000180390911903892B31F080913B0390915A
:1039D0003C030E94180AE0912C03F0912D03908182
:1039E000809131038095892380833ACD8FE971CD11
:1039F0008036910569F48091030390910403409708
:103A000039F480911F03813029F08FEA80933A03C3
:103A100012E062CD80E1FACFE0912C03F0912D030A
:103A2000808190913103892B80839ECD1092420238
:103A300010924102F1CD40914102509142026091B9
:103A4000EF027091F00230E1E32EF12C00E110E082
:103A500024E43AE01ECE0E943D146FE571E0CE01F1
:103A600007960E943416C0900503D0900603D7FE37
:103A700003C05FEFC51AD50AD594C7942B853C8542
:103A8000C901880F991F820F931FC81AD90AB092D3
:103A90001003A0920F03B0920E03A0920D03BE017B
:103AA000695F7F4FCE0101960E947D15C601019787
:103AB00090930A0380930903B0920C03A0920B0326
:103AC000CE0101960E94D106CE0101960E94FE14FD
:103AD000BE01695F7F4FCE0101960E947D15C60130
:103AE000019690930A0380930903B0920C03A0926D
:103AF0000B03CE0101960E94D106CE0101960E94D1
:103B0000FE14BE01695F7F4FCE0101960E947D15B4
:103B1000D0920A03C092090310920C0310920B0377
:103B2000CE0101960E94D106CE0101960E94FE149C
:103B3000BE01695F7F4FCE0101960E947D15D09234
:103B40000A03C092090382E090E090930C038093F3
:103B50000B03CE0101960E94D106CE0101960E9470
:103B6000FE141092100310920F0310920E03109285
:103B70000D03BE01695F7F4FCE0101960E947D1546
:103B8000D0920A03C0920903B0920C03A0920B03D7
:103B9000CE0101960E94D106CE0101960E94FE142C
:103BA000B0921003A0920F03B0920E03A0920D03E7
:103BB000CE0107960E94FE1469E671E0CE010196DF
:103BC0000E943416809107039091080397FD019697
:103BD00095958795BE016F5F7F4F08970E94F415FA
:103BE000CE0101960E94FE14609137027091380256
:103BF000CE0101960E94451580910703909108031C
:103C000097FD0196BE016F5F7F4F959587950E9446
:103C1000F415CE0101960E94FE1463E771E0CE0117
:103C200001960E9434168091070390910803BE010B
:103C30006F5F7F4F40970E949715CE0101960E94BB
:103C4000FE146091350270913602CE0101960E94F9
:103C500045158091070390910803BE016F5F7F4F68
:103C600008970E949715CE0101960E94FE140E94AB
:103C70000C130E94C805892BE1F340910703509172
:103C8000080357FF02C04F5F5F4F5595479550930C
:103C9000420240934102309244022092430220911A
:103CA00005033091060330933A0220933902CA018A
:103CB0000F9790933E0280933D02C90137FD019614
:103CC00095958795820F931F90933C0280933B02BA
:103CD0004E5151095093400240933F0210923802D6
:103CE000109237020E94C8050197E1F30E943D142B
:103CF000109201011092000196CD84E391E090931F
:103D0000FE028093FD0280911C0390911D03009799
:103D100011F00C94A12008958F929F92AF92BF92C0
:103D2000CF92DF92EF92FF92CF93DF93EC01688105
:103D300079818A819B81611571058105910521F445
:103D400064E279ED8BE597E02DE133EF41E050E05F
:103D50000E94651F49015A019B01AC01A7EAB1E429
:103D60000E94841F6B017C01ACEEB4EFA5019401AD
:103D70000E94921FC60ED71EE81EF91EF7FE06C04F
:103D800081E0C81AD108E10880E8F80AC882D9821F
:103D9000EA82FB82C701B6019F77DF91CF91FF9046
:103DA000EF90DF90CF90BF90AF909F908F9008954D
:103DB0008F929F92AF92BF92CF92DF92EF92FF923B
:103DC00060910201709103018091040190910501BD
:103DD000611571058105910521F464E279ED8BE5AA
:103DE00097E02DE133EF41E050E00E94651F49016B
:103DF0005A019B01AC01A7EAB1E40E94841F6B0148
:103E00007C01ACEEB4EFA50194010E94921FC60E96
:103E1000D71EE81EF91EF7FE06C081E0C81AD108B9
:103E2000E10880E8F80AC0920201D0920301E09212
:103E30000401F0920501C701B6019F77FF90EF9052
:103E4000DF90CF90BF90AF909F908F900895609338
:103E5000020170930301809304019093050108957A
:103E6000BB274A3031F4992322F4BDE29095819525
:103E70009F4F0C943C1FBB27FB015527AA27880F97
:103E8000991FAA1FA41710F0A41B83955051B9F7CE
:103E9000A05DAA3308F0A95DA193009779F7B1114D
:103EA000B1931192CB010C94551FDC01FC01672FDB
:103EB00071917723E1F7329704C07C916D93708301
:103EC0006291AE17BF07C8F30895052E97FB1EF445
:103ED00000940E947C1F57FD07D00E94CE1F07FC54
:103EE00003D04EF40C947C1F50954095309521954D
:103EF0003F4F4F4F5F4F0895909580957095619516
:103F00007F4F8F4F9F4F08950E94F01FA59F900DE8
:103F1000B49F900DA49F800D911D11240895B7FFAB
:103F20000C94841F0E94841F821B930B08952F9270
:103F30003F924F925F926F927F928F929F92AF9239
:103F4000BF92CF92DF92EF92FF920F931F93CF9386
:103F5000DF93CDB7DEB7CA1BDB0B0FB6F894DEBF1D
:103F60000FBECDBF09942A88398848885F846E8443
:103F70007D848C849B84AA84B984C884DF80EE808D
:103F8000FD800C811B81AA81B981CE0FD11D0FB696
:103F9000F894DEBF0FBECDBFED010895A1E21A2E49
:103FA000AA1BBB1BFD010DC0AA1FBB1FEE1FFF1FDD
:103FB000A217B307E407F50720F0A21BB30BE40B2D
:103FC000F50B661F771F881F991F1A9469F7609574
:103FD0007095809590959B01AC01BD01CF0108952E
:103FE000A29FB001B39FC001A39F700D811D11243A
:103FF000911DB29F700D811D1124911D0895EE0F2A
:10400000FF1F0590F491E02D09940F931F93CF9318
:10401000DF938230910510F482E090E0E0913F035D
:10402000F091400330E020E0B0E0A0E0309799F458
:104030002115310509F44AC0281B390B24303105FC
:10404000D8F58A819B816115710589F1FB01938304
:104050008283FE0111C04081518102811381481782
:104060005907E0F04817590799F4109761F0129634
:104070000C93129713961C933296CF01DF91CF9138
:104080001F910F91089500933F0310934003F4CFC5
:104090002115310551F04217530738F0A901DB0112
:1040A0009A01BD01DF01F801C1CFEF01F9CF909373
:1040B000400380933F03CDCFFE01E20FF31F8193B6
:1040C00091932250310939832883D7CF20913D0322
:1040D00030913E03232B41F42091080130910901D6
:1040E00030933E0320933D03209106013091070158
:1040F0002115310541F42DB73EB740910A01509189
:104100000B01241B350BE0913D03F0913E03E217B8
:10411000F307A0F42E1B3F0B2817390778F0AC01EA
:104120004E5F5F4F2417350748F04E0F5F1F5093C7
:104130003E0340933D03819391939FCFF0E0E0E0F5
:104140009CCFCF93DF930097E9F0FC013297138265
:104150001282A0913F03B0914003ED0130E020E0D6
:104160001097A1F420813181820F931F20913D038C
:1041700030913E032817390709F061C0F0933E03E0
:10418000E0933D03DF91CF910895EA01CE17DF0759
:10419000E8F54A815B819E0141155105B1F7E901BE
:1041A000FB83EA8349915991C40FD51FEC17FD0792
:1041B00061F4808191810296840F951FE9019983B2
:1041C0008883828193819B838A83F0E0E0E012966A
:1041D0008D919C9113970097B9F52D913C91119772
:1041E000CD010296820F931F20913D0330913E0333
:1041F0002817390739F6309751F51092400310927D
:104200003F03B0933E03A0933D03BCCFD383C2834F
:1042100040815181840F951FC817D90761F44E5F03
:104220005F4F88819981480F591F518340838A814C
:104230009B81938382832115310509F0B0CFF093E0
:104240004003E0933F039ECFFD01DC01C0CF13820A
:104250001282D7CFB0E0A0E0E0E3F1E20C94991F26
:104260008C01009751F4CB010E9405208C01C801FC
:10427000CDB7DEB7E0E10C94B51FFC01E60FF71FE8
:104280009C0122503109E217F30708F49DC0D901BF
:10429000CD91DC911197C617D70798F0C530D1059D
:1042A00030F3CE0104978617970708F3C61BD70B88
:1042B0002297C193D1936D937C93CF010E94A1204B
:1042C000D6CF5B01AC1ABD0A4C018C0E9D1EA0918D
:1042D0003F03B0914003512C412CF12CE12C10975D
:1042E00031F580913D0390913E038815990509F0C1
:1042F0005CC04616570608F058C0809106019091A0
:104300000701009741F48DB79EB740910A01509183
:104310000B01841B950BE817F90708F055C0F093C3
:104320003E03E0933D03F90171836083A0CF8D913B
:104330009C91119712966C90129713967C901397FC
:10434000A815B90559F56C0142E0C40ED11CCA1478
:10435000DB0420F1AC014A195B09DA0112961597CA
:1043600080F06282738251834083D9016D937C9384
:10437000E114F10471F0D7011396FC93EE931297B8
:1043800076CF22968C0F9D1FF90191838083F301D4
:10439000EFCFF0934003E0933F0369CF48165906EF
:1043A00008F42C017D01D3019ACFCB010E94052096
:1043B0007C01009749F0AE01B8010E94EC21C801D0
:1043C0000E94A120870153CF10E000E050CF81E090
:1043D00090E0F8940C940322FB01DC0102C00190F0
:1043E0000D9241505040D8F70895DC0101C06D9303
:1043F00041505040E0F70895FB01DC0101900D921F
:104400000020E1F7089515E0C3E7D5E004C0FE0100
:104410000E94FF1F2196C437D107C9F7F894FFCF38
:1044200001000100000000004103800000000000C6
:104430004D07A406DA069A070B07E906FD060000F9
:104440000000DF10B210D9149E05AB10981089102F
:1044500000000000560CA406D914221061099E0524
:10446000FB0ED30EEF0EE30E750F9E051C0A831490
:10447000D1081A091C0EFF0D870D280D0D0A004EDC
:10448000414E4F20424952440047414D45204F562E
:0E449000455200484947482053434F524500CB
:00000001FF
